:020000040800F2
:1000000000000220492D0008CD0E0008D10E000886
:10001000D50E0008D90E0008DD0E00080000000013
:10002000000000000000000000000000E10E0008D9
:10003000E50E000800000000E90E0008ED0E0008C3
:10004000992D0008992D0008992D0008992D000878
:10005000992D0008992D0008992D0008992D000868
:10006000992D0008992D0008992D0008992D000858
:10007000992D0008992D0008992D0008992D000848
:10008000992D0008992D0008992D0008992D000838
:10009000992D0008992D0008992D0008992D000828
:1000A000992D0008992D0008992D0008992D000818
:1000B000992D0008992D0008992D0008992D000808
:1000C000992D0008992D0008992D0008992D0008F8
:1000D000992D00084D0F0008992D0008992D000852
:1000E000992D0008992D0008992D0008992D0008D8
:1000F000992D0008992D0008992D0008992D0008C8
:10010000992D0008992D0008992D0008992D0008B7
:10011000992D0008992D0008992D0008992D0008A7
:10012000992D0008992D0008F50E0008050F00080C
:10013000992D0008992D0008992D0008992D000887
:10014000992D0008992D0008992D0008992D000877
:10015000992D0008992D0008992D0008992D000867
:10016000992D0008992D0008992D0008992D000857
:10017000992D0008992D0008992D00080000000015
:08018000992D0008992D0008DB
:1001C00010B5054C237833B9044B13B10448AFF391
:1001D00000800123237010BD4C0C002000000000A3
:1001E00034460008084B10B51BB108490848AFF366
:1001F00000800848036803B910BD074B002BFBD0F3
:10020000BDE81040184700BF00000000500C00205F
:10021000344600084C0C00200000000053B94AB9D5
:10022000002908BF00281CBF4FF0FF314FF0FF30FE
:1002300000F07EB9ADF1080C6DE904CE00F006F8CF
:10024000DDF804E0DDE9022304B070472DE9F04752
:100250008C460E460446089D002B50D18A42174614
:100260006CD9B2FA82FEBEF1000F0BD0CEF12004A1
:1002700020FA04F401FA0EF644EA060C02FA0EF72C
:1002800000FA0EF44FEA1749220CBCFBF9F01FFAF2
:1002900087F809FB10C642EA064600FB08F3B342A2
:1002A00009D9F61900F1FF3280F02281B34240F201
:1002B0001F8102383E44F61AA2B2B6FBF9F309FBDD
:1002C000136642EA064403FB08F8A04509D9E4197D
:1002D00003F1FF3280F00A81A04540F20781023B22
:1002E0003C44C8EB040443EA00400021002D62D0E6
:1002F00024FA0EF400232C606B60BDE8F0878B427B
:1003000007D9002D55D0002185E841000846BDE8F9
:10031000F087B3FA83F1002940F09080B34202D312
:10032000824200F2F880841A66EB03060120B4468C
:10033000002D40D085E81010BDE8F08712B90127E4
:10034000B7FBF2F7B7FA87FEBEF1000F35D1F31B0A
:100350004FEA17481FFA87FC0121B3FBF8F0220C83
:1003600008FB103642EA06460CFB00F3B34207D9FD
:10037000F61900F1FF3202D2B34200F2CE801046ED
:10038000F61AA2B2B6FBF8F308FB136642EA06447B
:100390000CFB03FCA44507D9E41903F1FF3202D298
:1003A000A44500F2B5801346CCEB040443EA0040B8
:1003B0009CE729462846BDE8F087CEF1200106FAE1
:1003C0000EF307FA0EF720FA01F94FEA1748CE406C
:1003D00049EA0309B6FBF8FA4FEA194408FB1A6622
:1003E0001FFA87FC44EA06430AFB0CF29A4200FA21
:1003F0000EF40AD9DB190AF1FF3180F087809A42A6
:1004000040F28480AAF1020A3B449B1A1FFA89F940
:10041000B3FBF8F108FB113349EA034301FB0CF687
:100420009E4207D9DB1901F1FF326BD29E4269D996
:1004300002393B449B1B41EA0A418EE7C1F1200E81
:1004400022FA0EF48B40234320FA0EF706FA01F449
:100450004FEA134C26FA0EF63C43B6FBFCF9270C88
:100460000CFB19661FFA83F847EA064609FB08F7F2
:10047000B74202FA01F200FA01FA08D9F61809F1B6
:10048000FF3041D2B7423FD9A9F102091E44F61B01
:10049000A0B2B6FBFCF40CFB146640EA064704FB72
:1004A00008F8B84507D9FF1804F1FF3028D2B8453D
:1004B00026D9023C1F4444EA0940C8EB0707A0FBC9
:1004C00002894F4544464E4614D329D065B3BAEB52
:1004D000040367EB060707FA0EFECB40CF404EEA57
:1004E000030385E888000021BDE8F0871346F8E69D
:1004F0001046E0E6B8EB020469EB03060138E5E7D5
:100500000446D8E7114695E78146C0E78A467CE76E
:10051000023B3C4448E708460AE702383E442FE7DE
:10052000C245E7D33E46D1E72946BDE8F08700BF84
:10053000704700BF844641EA000313F003036DD106
:10054000403A41D351F8043B40F8043B51F8043B96
:1005500040F8043B51F8043B40F8043B51F8043B9D
:1005600040F8043B51F8043B40F8043B51F8043B8D
:1005700040F8043B51F8043B40F8043B51F8043B7D
:1005800040F8043B51F8043B40F8043B51F8043B6D
:1005900040F8043B51F8043B40F8043B51F8043B5D
:1005A00040F8043B51F8043B40F8043B51F8043B4D
:1005B00040F8043B51F8043B40F8043B51F8043B3D
:1005C00040F8043B403ABDD2303211D351F8043BDD
:1005D00040F8043B51F8043B40F8043B51F8043B1D
:1005E00040F8043B51F8043B40F8043B103AEDD28C
:1005F0000C3205D351F8043B40F8043B043AF9D2DD
:10060000043208D0D2071CBF11F8013B00F8013BAF
:1006100001D30B8803806046704700BF082A13D3BC
:100620008B078DD010F003038AD0C3F10403D21AD4
:10063000DB071CBF11F8013B00F8013B80D331F808
:10064000023B20F8023B7BE7043AD9D3013A11F888
:10065000013B00F8013BF9D20B7803704B784370F3
:100660008B78837060467047000000000000000037
:10067000000000000000000000000000000000007A
:1006800090F800F06DE9024520F007016FF0000CD2
:1006900010F0070491F820F040F049804FF000047A
:1006A0006FF00700D1E9002391F840F000F1080055
:1006B00082FA4CF2A4FA8CF283FA4CF3A2FA8CF38D
:1006C0004BBBD1E9022382FA4CF200F10800A4FAF4
:1006D0008CF283FA4CF3A2FA8CF3E3B9D1E9042348
:1006E00082FA4CF200F10800A4FA8CF283FA4CF37F
:1006F000A2FA8CF37BB9D1E9062301F1200182FA39
:100700004CF200F10800A4FA8CF283FA4CF3A2FA3E
:100710008CF3002BC6D0002A04BF04301A4612BA4C
:10072000B2FA82F2FDE8024500EBD2007047D1E94F
:10073000002304F00305C4F100004FEAC50514F0DE
:10074000040F91F840F00CFA05F562EA05021CBFAF
:1007500063EA050362464FF00004A9E700000000C9
:1007600001F0FF01102A2BDB10F0070F08D010F862
:10077000013B013A8B422DD010F0070F42B3F6D166
:10078000F0B441EA012141EA014122F007047FF07F
:1007900000070023F0E80256083C85EA010586EAD6
:1007A000010685FA47F5A3FA87F586FA47F6A5FA12
:1007B00087F68EB9EED1F0BC01F0FF0102F007021E
:1007C00032B110F8013B013A83EA010313B1F8D1C9
:1007D0000020704701387047002D06BF35460338AA
:1007E000073815F0010F07D1013015F4807F02BFE3
:1007F000013015F4C03F0130F0BC0138704700BF34
:1008000000B583B08DF8070029B1012210210C48F2
:1008100001F096F804E000221021094801F090F858
:100820000A2301220DF10701064801F0DFFC012235
:100830001021034801F084F803B05DF804FB00BF09
:10084000000802406C18002010B5044618B90021B9
:10085000A620FFF7D5FF012C03D10021A720FFF729
:10086000CFFF10BD10B5044638B90021C820FFF7EE
:10087000C7FF0021A120FFF7C3FF012C07D10021F2
:10088000C020FFF7BDFF0021A020FFF7B9FF10BD7A
:1008900008B54FF480620249024801F07FFD08BDAF
:1008A000680C00206C18002008B500200DE0094AF3
:1008B00002EBC302002111540133DBB200E000233C
:1008C00013F0800FF3D00130C0B20728F7D9FFF73B
:1008D000DFFF08BD680C002030B4CD0801F007032D
:1008E000012404FA03F3DBB232B1094A02EBC0007F
:1008F000425D1343435508E0054A02EBC000425DE8
:10090000D243D2B21343DB43435530BC704700BFE0
:10091000680C00202DE9F04F85B001900D469346FC
:100920009DF83C8013F0070218BF012202EBD303AD
:10093000039300910746002302939A4638E00E9BEA
:1009400013F80A600AF1010A1FFA8AFA002414E077
:1009500016F0010F05D0424629463846FFF7BCFF86
:1009600006E0B8FA88F2520929463846FFF7B4FF84
:1009700076080135EDB20134E4B2072CE8D901372D
:10098000FFB2019BFB1A5B4504D1009B0833DBB22D
:100990000093019F09F101095FFA89F9009D01E0C7
:1009A0004FF00009D945CAD3029B0133DBB2029351
:1009B000029B039A9342F3D305B0BDE8F08F00BFCA
:1009C00010B5424C00222021204600F0B9FFC8207B
:1009D00000F0EEFB01222021204600F0B1FF0021B3
:1009E000AE20FFF70DFF00210846FFF709FF0021A9
:1009F0001020FFF705FF00214020FFF701FF002135
:100A00008120FFF7FDFE0021CF20FFF7F9FE002136
:100A1000A120FFF7F5FE0021C820FFF7F1FE00211D
:100A2000A620FFF7EDFE0021A820FFF7E9FE002138
:100A30003F20FFF7E5FE0021D320FFF7E1FE002174
:100A40000846FFF7DDFE0021D520FFF7D9FE002183
:100A50008020FFF7D5FE0021D920FFF7D1FE00212D
:100A6000F120FFF7CDFE0021DA20FFF7C9FE0021BB
:100A70001220FFF7C5FE0021DB20FFF7C1FE002199
:100A80004020FFF7BDFE00212020FFF7B9FE002126
:100A90000120FFF7B5FE00218D20FFF7B1FE0021F8
:100AA0001420FFF7ADFE0021A420FFF7A9FE0021CE
:100AB000A620FFF7A5FE0021AF20FFF7A1FE6420CE
:100AC00000F076FBFFF7F0FE10BD00BF000802400B
:100AD00010B582B0002401940D4B1A6B42F48002D1
:100AE0001A631B6B03F480030193019B224621468A
:100AF0003A2000F083FB3A2000F0B2FB2246214668
:100B00003B2000F07BFB3B2000F0AAFB02B010BDB5
:100B100000380240F0B58BB0002405940694079489
:100B2000089409940194264B1A6B42F004021A634C
:100B30001A6B02F004020192019A02941A6B42F0BD
:100B400020021A631A6B02F020020292029A0394A6
:100B50001A6B42F080021A631A6B02F08002039251
:100B6000039A04941A6B42F001021A631B6B03F0A0
:100B700001030493049B134F01224FF4C0613846D4
:100B800000F0DEFE104D01223021284600F0D8FE94
:100B90004FF4C0630593012606960794089405A9AF
:100BA000384600F0E5FD30230593069607940323AD
:100BB000089305A9284600F0DBFD0BB0F0BD00BF8F
:100BC00000380240001402400008024038B50268B4
:100BD0001B4B9A4233D11B4801F056FE1A4B1B683F
:100BE0005C68C4F58064194A13785D1CEDB2157019
:100BF00022461749174800EB0320FFF79BFC042D02
:100C00000BD10022114B1A704FF480621149124827
:100C100001F0C4FB114802F071F90D4D4FF48062F0
:100C200029460D4801F0BAFB22460021284602F071
:100C3000E3F84FF480622946024802F069F838BDB3
:100C40000010014088190020281900206810002099
:100C50006C1000206C1400206C1800204C4600081A
:100C600072B6FEE700B595B03022002108A802F068
:100C7000C3F800230393049305930693079301930A
:100C8000204A116C41F080511164126C02F08052C4
:100C90000192019A02931C4B1A6842F480421A6036
:100CA0001B6803F480430293029B012308934FF4D3
:100CB0008033099302220E924FF480030F93042392
:100CC0001093A82111911292139308A800F03EFEF0
:100CD00008B1FFF7C5FF0F230393022304930023FA
:100CE00005934FF4A05306934FF4805307930521C7
:100CF00003A801F0A5F808B1FFF7B2FF15B05DF841
:100D000004FB00BF003802400070004000B583B013
:100D100000F022FAFFF7A6FFFFF7DAFEFFF7FAFE70
:100D200000F06AF9FFF7D4FE00F02CF812480268D0
:100D3000D36843F01003D3604FF480620F4901F091
:100D4000E7FF642000F034FAFFF73AFE012000F0DC
:100D50002FFA0020FFF778FD0020FFF783FD012325
:100D60000193074B00934023802200210846FFF7A0
:100D7000D1FDFFF78DFDFEE7881900206C100020E3
:100D80000000002008B50F480F4B03604FF482733A
:100D900043604FF4004383600023C360022202617A
:100DA000012242614FF480228261C3610362436287
:100DB00083620A23C36201F0B7F908B1FFF750FF5D
:100DC00008BD00BF6C180020003001402DE9F04143
:100DD00088B0002303930493059306930793026856
:100DE000284B9A424BD104460025019503F58433E4
:100DF0005A6C42F480525A645A6C02F48052019246
:100E0000019A02951A6B42F001021A631B6B03F000
:100E100001030293029B102303934FF00208CDF8C5
:100E200010800323069305270797174E03A9304622
:100E300000F09EFCA0230393CDF8108005950123BC
:100E40000693079703A9304600F092FC0F48104B19
:100E500003604FF0C063436040238360C5604FF47C
:100E60008063036145618561C5610562456200F08B
:100E700097FA08B1FFF7F4FE044BA3649C6308B033
:100E8000BDE8F0810030014000000240C41800209D
:100E90005864024082B0002100910B4B5A6C42F41E
:100EA00080425A645A6C02F480420092009A019186
:100EB0001A6C42F080521A641B6C03F08053019349
:100EC000019B02B0704700BF00380240FEE700BF40
:100ED000FEE700BFFEE700BFFEE700BFFEE700BF82
:100EE000704700BF704700BF704700BF08B500F0F3
:100EF0004DF908BD08B5024800F04EFB08BD00BF23
:100F00002819002008B5024800F046FB08BD00BFC4
:100F1000C41800200B4B1B680B4A934211D11A686E
:100F200012F0100F0DD000B583B0002201921A68A4
:100F300001925B680193019BFFF748FE03B05DF8E7
:100F400004FB7047881900200010014010B5044CC4
:100F5000204601F067FD2046FFF7DCFF10BD00BF13
:100F600088190020F8B50D461746002405E06E1CD0
:100F7000AFF30080287001343546BC42F7DB3846B9
:100F8000F8BD00BF70B51646002405E04D1C08787A
:100F900000F0AAF801342946B442F7DB304670BDB0
:100FA00008B50B4B1B6813B90A4A094B1A60084B6A
:100FB0001A68131869468B4206D901F0EFFE0C231C
:100FC00003604FF0FF3008BD01490B60104608BDBB
:100FD00024190020081A00204FF0FF30704700BF8E
:100FE0004FF400534B600020704700BF0120704752
:100FF00000207047704700BF08B50A480A4B0360DD
:101000004FF4E133436000238360C36003610C222B
:1010100042618361C36101F097FB08B1FFF720FED5
:1010200008BD00BF881900200010014030B589B00C
:10103000002303930493059306930793026803F137
:10104000804303F588339A4246D104460025019532
:1010500003F594335A6C42F010025A645A6C02F051
:1010600010020192019A02951A6B42F001021A6372
:101070001B6B03F001030293029B4FF4C0630393C5
:1010800002230493032306930723079303A913481A
:1010900000F06EFB1248134B03604FF00063436097
:1010A0008560C5604FF480630361456185614FF4DD
:1010B0008073C3610562456200F072F908B1FFF701
:1010C000CFFD074BA3639C6300221146252000F04F
:1010D00095F8252000F0C4F809B030BD00000240AA
:1010E000281900204064024000B583B002A941F8ED
:1010F000040D4FF6FF730122034801F057FB0198DE
:1011000003B05DF804FB00BF8819002010B5044649
:101110000E4B18784FF47A73B3FBF0F30C4A106857
:10112000B0FBF3F000F0AAF858B90F2C0BD800224E
:1011300021464FF0FF3000F061F8064B1C600020A4
:1011400010BD012010BD012010BD00BF080400200B
:10115000000400200404002008B50B4B1A6842F478
:1011600000721A601A6842F480621A601A6842F4C7
:1011700080721A60032000F02FF80F20FFF7C6FFDF
:10118000FFF788FE002008BD003C0240034A1368B8
:10119000034909780B441360704700BFCC19002045
:1011A00008040020014B1868704700BFCC190020CC
:1011B00038B50446FFF7F6FF0546B4F1FF3F02D00D
:1011C000044B1B781C44FFF7EDFF401B8442FAD808
:1011D00038BD00BF08040020074AD36823F4E06349
:1011E0001B041B0C000200F4E060184340F0BF60D9
:1011F00040F40030D060704700ED00E030B4164B92
:10120000DB68C3F30223C3F10704042C28BF0424C2
:101210001D1D062D01D9DD1E00E00025012303FA66
:1012200004F4013C2140A940AB40013B1A400A4371
:10123000002808DB1201D2B200F1604000F56140E5
:1012400080F8002305E000F00F001201D2B2034B3A
:101250001A5430BC704700BF00ED00E014ED00E010
:10126000002808DB420900F01F00012303FA00F008
:10127000014B43F82200704700E100E00138B0F173
:10128000807F0AD2064B5860F021064A82F823106C
:101290000020986007221A6070470120704700BF45
:1012A00010E000E000ED00E030B405682C6824F4A4
:1012B00080242C60046863608368402B04D1036839
:1012C0009A600368D96003E0036899600368DA6094
:1012D00030BC70470268D3B2103B0B49A1FB03132B
:1012E0001B090A49C95CC165032B06D922F47F7228
:1012F00022F003020432826504E022F47F7222F0BD
:1013000003028265806D7047ABAAAAAA68460008EE
:10131000836A826982B9012B08D00BB1022B2ED1CE
:10132000C36A13F0807F2CD100207047C36AB3F1E9
:10133000C07F28D000207047B2F5005F13D1032B87
:1013400003D8DFE803F02204220A00207047C36AB2
:1013500013F0807F1BD100207047C36AB3F1C07FB8
:1013600017D000207047022B15D9032B01D0002085
:101370007047C36A13F0807F0FD1002070470020B0
:1013800070470120704701207047012070470120FD
:10139000704701207047012070470120704700BF4F
:1013A00070B50446FFF7FEFE002C5CD00546002316
:1013B00084F83430022384F835302268136823F02F
:1013C000010313600AE0FFF7EDFE401B052805D975
:1013D00020236365032084F8350070BD23681A68F4
:1013E00012F0010FEFD11A68204810406168A2681E
:1013F0001143E26811432269114362691143A269F2
:101400001143E2690A43216A114340EA0102616A19
:10141000042903D1E06A216B01430A431A6026685C
:10142000756925F00705636A1D43042B0DD1A36A76
:101430001D43E36A4BB12046FFF76AFF28B1402302
:101440006365012084F8350070BD75612046FFF7A3
:1014500041FFE26D3F2393408360002060650123DC
:1014600084F8353070BD012070BD00BF3F8010F0A2
:1014700038B5856D90F83440012C2CD0012480F8CB
:10148000344090F83540E4B2012C1FD104460220CC
:1014900084F83500002060652046FFF705FFE26D07
:1014A0003F239340AB602268136843F01603136038
:1014B000236C23B12268136843F008031360226889
:1014C000136843F001031360002038BD002380F847
:1014D0003430022038BD022038BD00BF70B504464C
:1014E000866DFFF75FFE94F83530DBB2022B06D035
:1014F00080236365002384F83430012070BD0546E5
:101500002268136823F0160313602268536923F0DE
:1015100080035361236C0BB9A36C23B12268136859
:1015200023F0080313602268136823F0010313609B
:101530000DE0FFF737FE401B052808D9202363651F
:10154000002384F83430032084F8350070BD23680C
:101550001B6813F0010FECD1E26D3F239340B360A1
:10156000002084F83400012384F8353070BD00BFBA
:1015700090F83530DBB2022B03D080234365012085
:101580007047052380F835300268136823F00103A3
:1015900013600020704700BFF0B583B004460023FD
:1015A0000193714B1B68714DA5FB0335AD0A876D27
:1015B0003E68C26D082393401E4210D003681A682B
:1015C00012F0040F0BD01A6822F004021A60C26DE8
:1015D00008239340BB60436D43F001034365E26D14
:1015E000012393401E4209D02268526912F0800FF5
:1015F00004D0BB60636D43F002036365E26D0423B6
:1016000093401E4209D02268126812F0020F04D0E3
:10161000BB60636D43F004036365E26D1023934088
:101620001E4224D02268126812F0080F1FD0BB603F
:1016300023681A6812F4802F0DD01B6813F4002F52
:1016400004D1236C9BB12046984710E0A36C73B182
:10165000204698470BE01A6812F4807F03D11A687D
:1016600022F008021A60236C0BB120469847E26D05
:10167000202393401E4252D02268126812F0100FAD
:101680004DD0BB6094F83530DBB2052B22D12268F7
:10169000136823F0160313602268536923F0800354
:1016A0005361236C0BB9A36C23B12268136823F038
:1016B00008031360E26D3F239340BB60002384F86E
:1016C0003430012384F83530236D002B49D0204677
:1016D000984746E023681A6812F4802F0DD01B68E3
:1016E00013F4002F04D1636CCBB12046984716E069
:1016F000E36BA3B12046984711E01A6812F4807F8B
:1017000009D11A6822F010021A60002384F83430DC
:10171000012384F83530E36B0BB120469847636DA5
:10172000FBB1636D13F0010F17D0052384F835303A
:101730002268136823F001031360019B01330193B6
:101740009D4204D323681B6813F0010FF5D10023D9
:1017500084F83430012384F83530E36C0BB1204633
:10176000984703B0F0BD00BF00040020B5814E1BB8
:10177000F0B583B00023D5E001229A400C6802EA5C
:101780000405AA4240F0CD804C6804F00304013CFB
:10179000012C15D887684FEA430E032606FA0EF689
:1017A00027EA0606CC6804FA0EF4344384604468E1
:1017B00024EA02024C68C4F300149C4022434260B5
:1017C0004A6802F00302032A09D0C6685F000324B6
:1017D000BC4026EA04048A68BA402243C2604A68D0
:1017E00002F00302022A0FD1DC08083450F82470FA
:1017F00003F0070296000F22B24027EA02070A69A7
:10180000B2403A4340F8242004685F000326BE40FB
:1018100024EA06064A6802F0030404FA07F2324397
:1018200002604A6812F0805F7BD000220192404A39
:10183000546C44F480445464526C02F4804201922B
:10184000019A9E08B41C3B4A52F8247003F003022C
:1018500092000F24944027EA0407374CA0421DD081
:1018600004F58064A0421BD004F58064A04219D026
:1018700004F58064A04217D004F58064A04215D01E
:1018800004F58064A04213D004F58064A04211D016
:1018900004F58064A0420FD107240EE000240CE080
:1018A00001240AE0022408E0032406E0042404E002
:1018B000052402E0062400E0082404FA02F23A4378
:1018C00002361C4C44F826201C4A1468EA4304EAF9
:1018D00002064F6817F4803F01D045EA0406174C12
:1018E0002660646802EA04064F6817F4003F01D0DE
:1018F00045EA0406114C6660A46802EA04064F68D3
:1019000017F4801F01D045EA04060C4CA660E46879
:1019100022404E6816F4001F01D045EA0402074C2D
:10192000E26001330F2B7FF627AF03B0F0BD00BF9D
:10193000003802400038014000000240003C0140F5
:101940000AB181617047090481617047002800F085
:10195000DD8170B582B00446036813F0010F5AD0E0
:10196000A04B9B6803F00C03042B0AD09D4B9B6893
:1019700003F00C03082B0DD19A4B5B6813F4800F16
:1019800008D0984B1B6813F4003F44D06368002BC9
:1019900041D1BDE16368B3F5803F05D1914A136839
:1019A00043F48033136015E0B3F5A02F09D18D4BBC
:1019B0001A6842F480221A601A6842F480321A606F
:1019C00008E0884B1A6822F480321A601A6822F400
:1019D00080221A6063687BB1FFF7E4FB054605E0EF
:1019E000FFF7E0FB401B642800F294817D4B1B68ED
:1019F00013F4003FF4D00EE0FFF7D4FB054605E0FA
:101A0000FFF7D0FB401B642800F28681754B1B68F2
:101A100013F4003FF4D1236813F0020F50D0714B40
:101A20009B6813F00C0F0AD06E4B9B6803F00C03FD
:101A3000082B16D16B4B5B6813F4800F11D1694BE7
:101A40001B6813F0020F03D0E368012B40F066819E
:101A5000644A136823F0F803216943EAC103136061
:101A60002EE0E368D3B101225F4B1A60FFF79AFBC7
:101A7000054605E0FFF796FB401B022800F2508167
:101A8000584B1B6813F0020FF4D0564A136823F02A
:101A9000F803216943EAC103136011E00022524BAD
:101AA0001A60FFF77FFB054605E0FFF77BFB401B55
:101AB000022800F237814B4B1B6813F0020FF4D160
:101AC000236813F0080F26D0636993B10122474BB6
:101AD0001A60FFF767FB054605E0FFF763FB401B55
:101AE000022800F221813F4B5B6F13F0020FF4D00C
:101AF00011E000223D4B1A60FFF754FB054605E05C
:101B0000FFF750FB401B022800F21081354B5B6F42
:101B100013F0020FF4D1236813F0040F7DD0314B82
:101B20001B6C13F0805F0DD1002301932D4B1A6CB9
:101B300042F080521A641B6C03F080530193019BA6
:101B4000012500E000252A4B1B6813F4807F13D188
:101B5000274A136843F480731360FFF723FB06469C
:101B600005E0FFF71FFB801B022800F2E180204BFD
:101B70001B6813F4807FF4D0A368012B05D1194AA8
:101B8000136F43F00103136714E0052B09D1154BC4
:101B90001A6F42F004021A671A6F42F001021A67C4
:101BA00008E0104B1A6F22F001021A671A6F22F038
:101BB00004021A67A3688BB1FFF7F4FA064607E040
:101BC000FFF7F0FA801B41F28833984200F2B280AE
:101BD000044B1B6F13F0020FF2D018E0FFF7E2FA8C
:101BE00006460FE00038024000004742800E4742A0
:101BF00000700040FFF7D6FA801B41F2883398420C
:101C000000F29A80594B1B6F13F0020FF2D125B1ED
:101C1000564A136C23F080531364A369002B00F021
:101C20008D80524A926802F00C02082A48D0022B9A
:101C300033D100224E4B1A60FFF7B4FA054604E098
:101C4000FFF7B0FA401B02287AD8484B1B6813F004
:101C5000007FF5D1E269236A1343626A43EA821383
:101C6000A26A5208013A43EA0243E26A43EA026383
:101C70003E4A536001223E4B1A60FFF793FA044636
:101C800004E0FFF78FFA001B02285BD8374B1B6874
:101C900013F0007FF5D0002065E00022344B1A607D
:101CA000FFF780FA044604E0FFF77CFA001B0228E5
:101CB0004AD82E4B1B6813F0007FF5D1002052E06C
:101CC000012B43D0294A526842D002F48003E169D3
:101CD0008B423FD102F03F03216A8B423CD1616AC3
:101CE00047F6C0731340B3EB811F37D102F4403184
:101CF000A36A5B08013BB1EB034F31D102F0706284
:101D0000E36AB2EB036F2DD001202CE00120704775
:101D1000012028E0032026E0032024E0012022E027
:101D2000032020E003201EE003201CE003201AE033
:101D3000032018E0032016E0032014E0002012E046
:101D4000032010E003200EE003200CE001200AE055
:101D5000012008E0012006E0012004E0012002E06B
:101D6000012000E0002002B070BD00BF003802403A
:101D70006000474238B52F4B9B6803F00C03042BDF
:101D800055D0082B01D02C4838BD2A4B5A6802F098
:101D90003F025B6813F4800F20D0264B5B68C3F3CF
:101DA0008813DC000025690141EAD4616001041B4D
:101DB00061EB0505A90141EA9461A001001B61EBFB
:101DC0000501C01841F100014B0243EAD05344021F
:101DD000204619460023FEF721FA1FE0154B5B68E9
:101DE000C3F38813DC000025690141EAD461600176
:101DF000041B61EB0505A90141EA9461A001001BE8
:101E000061EB0501C01841F100018B0243EA9053D8
:101E10008402204619460023FEF700FA054B5B6852
:101E2000C3F3014301335B00B0FBF3F038BD03485B
:101E300038BD00BF003802400024F40000127A00D0
:101E4000002800F0988070B50446524B1B6803F0E0
:101E500007038B4208D2CBB24E4A1370136803F0CB
:101E60000703994240F08980236813F0020F17D0CE
:101E700013F0040F04D0484A936843F4E05393608E
:101E8000236813F0080F04D0434A936843F4604377
:101E900093604148836823F0F002A3681343836092
:101EA0000D46236813F0010F2FD06268012A05D177
:101EB000394B1B6813F4003F0ED160E0931E012BD9
:101EC00005D8354B1B6813F0007F05D159E0324B24
:101ED0001B6813F0020F56D02F498B6823F00303C1
:101EE00013438B60FFF75EF9064606E0FFF75AF9E9
:101EF000801B41F28833984247D8274B9B6803F0F8
:101F00000C036268B3EB820FF0D1224B1B6803F025
:101F100007039D4207D2EAB21E4B1A701B6803F0FA
:101F200007039D4233D1236813F0040F06D01A49EA
:101F30008B6823F4E052E36813438B60236813F04B
:101F4000080F07D0144A936823F46043216943EAD9
:101F5000C1039360FFF70EFF0F4B9B68C3F303139E
:101F60000E4AD35CD8400E4B18600E4B1868FFF732
:101F7000CDF8002070BD01207047012070BD012008
:101F800070BD012070BD012070BD032070BD012017
:101F900070BD00BF003C02400038024050460008BF
:101FA0000004002004040020014B1868704700BFA3
:101FB0000004002008B5FFF7F7FF044B9B68C3F34C
:101FC0008223034AD35CD84008BD00BF00380240DA
:101FD0006046000808B5FFF7E7FF044B9B68C3F3B2
:101FE0004233034AD35CD84008BD00BF00380240EA
:101FF000604600082DE9F04383B004460F461646BC
:102000001D46FFF7CFF80A9B181A00EB0508FFF7EB
:10201000C9F88146294B1B68C3F3CB3303FB08F394
:1020200001933DE0B5F1FF3F3AD0FFF7BBF8C9EBB4
:102030000000804502D9B8F1000F2AD12268536808
:1020400023F0E00353606368B3F5827F0BD1A3688C
:10205000B3F5004F02D0B3F5806F04D12268136846
:1020600023F040031360A36AB3F5005F09D122682F
:10207000136823F4005313602268136843F4005379
:102080001360012384F85130002384F8503003207A
:1020900010E0019B0BB94FF00008019B013B01933D
:1020A00023689B6837EA03030CBF01230023B34274
:1020B000B8D1002003B0BDE8F08300BF00040020C9
:1020C00030B585B0164C2468164DA5FB0434640D5C
:1020D0004FF47A7505FB04F403944468B4F5827FE9
:1020E0000ED10B460446009200228021FFF782FFAA
:1020F000034690B1636D43F02003636503230CE056
:10210000039B4BB1039B013B039303689B6813F054
:10211000800FF5D1002300E00023184605B030BD44
:1021200000040020819F5E1600285CD070B5044634
:10213000436A33B94368B3F5827F05D00023C36196
:1021400002E00023036143610023A36294F851304D
:1021500013F0FF0F05D1002384F850302046FEF71E
:1021600035FE022384F851302268136823F04003BF
:1021700013602168626802F48272A56805F4044560
:102180002A43E36803F400631A43206900F0020065
:102190000243666906F001063243A56905F400753D
:1021A0002A43E06900F0380042EA0003226A02F0A4
:1021B00080021A43A36A03F4005313430B6021689F
:1021C000638B03F00402636A03F0100313434B6054
:1021D0002268D36923F40063D36100206065012382
:1021E00084F8513070BD0120704700BF2DE9F041E7
:1021F00082B090F85040012C00F0CB801D4617466D
:1022000088460446012380F85030FEF7CBFF06468F
:1022100094F85130DBB2012B40F0A580B8F1000FEB
:1022200000F0A380002F00F0A280032384F8513037
:1022300000236365C4F83080A786E786A363A3877D
:10224000E38763642364A368B3F5004F09D1226870
:10225000136823F0400313602268136843F480433B
:10226000136023681A6812F0400F03D11A6842F015
:1022700040021A60E368B3F5006F30D163680BB1B8
:10228000012F27D12368226B1288DA60236B023377
:102290002363E38E9BB2013B9BB2E3861AE0236883
:1022A0009A6812F0020F0BD0226B1288DA60236B4F
:1022B00002332363E38E9BB2013B9BB2E38609E0CA
:1022C000FEF770FF801BA84202D3B5F1FF3F50D14B
:1022D000002D50D0E38E9BB2002BE0D12EE063683E
:1022E0000BB1012F26D12368226B12781A73236B4E
:1022F00001332363E38E9BB2013B9BB2E38619E07B
:1023000023689A6812F0020F0BD0226B12781A73AE
:10231000236B01332363E28E92B2013A92B2E286DA
:1023200008E0FEF73FFF801B854202D8B5F1FF3F72
:1023300023D125B3E28E92B2002AE1D1324629465A
:102340002046FFF7BDFE08B120236365A36833B9BB
:1023500001932368DA6801929B680193019B636D86
:102360007BB900200EE002200CE001200AE00120F1
:1023700008E0032006E0032004E0032002E003203D
:1023800000E00120012384F85130002384F850300C
:1023900000E0022002B0BDE8F08100BF90F85030AC
:1023A000012B63D010B50446012380F8503090F81B
:1023B0005130DBB2012B50D1002950D0002A50D02F
:1023C000032380F851300023436501638286C2866F
:1023D0008363436403648387C3878368B3F5004FD3
:1023E00009D10268136823F0400313600268136880
:1023F00043F480431360A36C1D4A1A64A36C1D4A06
:10240000DA63A36C1C4ADA64A36C00221A652268A2
:10241000E38E9BB20C32216BA06CFFF729F838B128
:10242000636D43F010036365012084F8510019E0E7
:1024300023681A6812F0400F03D11A6842F0400274
:102440001A602268536843F020035360226853687F
:1024500043F002035360002004E0022002E0012068
:1024600000E00120002384F8503010BD02207047A6
:1024700085240008B924000895240008704700BF8F
:10248000704700BF08B5806BFFF7FAFF08BD00BFBB
:10249000704700BF08B5806B0268536823F00303E0
:1024A0005360436D43F010034365012380F85130BE
:1024B000FFF7EEFF08BD00BF30B583B00546846B63
:1024C000FEF770FE2B681B6813F4807F27D122680B
:1024D000536823F0200353602268536823F00203FB
:1024E0005360024664212046FFF7EAFD18B1636D90
:1024F00043F020036365A36833B901932368DA6866
:1025000001929B680193019B0023E386012384F8D9
:102510005130636D1BB12046FFF7BAFF02E0204641
:10252000FFF7ACFF03B030BD0268D36823F0C003EF
:10253000D360202380F83D30704700BF0268D36825
:1025400023F49073D3600268536923F0010353614D
:10255000036B012B04D10268D36823F01003D3600E
:10256000202380F83E3000230363704790F83D300D
:10257000DBB2212B27D18368B3F5805F0BD10369D0
:102580004BB9036A02681B88C3F308035360036AEC
:102590000233036205E00268036A591C01621B787A
:1025A0005360C38C9BB2013B9BB2C3846BB902687E
:1025B000D36823F08003D3600268D36843F04003FC
:1025C000D36000207047022070470020704700BF92
:1025D000F8B5054601680B6923F44052C3681343FC
:1025E0000B6181680369194343691943C36919433E
:1025F0000068C26822F4164323F00C030B43C36047
:1026000029684B6923F44072AB6913434B612B6813
:10261000314A934203D002F58062934202D1FFF720
:10262000D9FC01E0FFF7C6FCEB69B3F5004F2AD1F6
:102630002C680021061841EB010736184F41FB00BA
:1026400043EA5673F20016461F466A680023921842
:102650005B4180197941FDF7E1FD204BA3FB00129E
:102660005109642202FB1102D2003232A3FB022381
:102670005B095A0002F4F87202EB011203F007033F
:102680001344A360F8BD2C680021061841EB010734
:1026900036184F41FB0043EA5673F20016461F46B8
:1026A0006B689A009B0F80197941FDF7B7FD0B4BC2
:1026B000A3FB00214909642202FB110212013232FC
:1026C000A3FB02235B0903F0F00202EB011103F00C
:1026D0000F030B44A360F8BD001001401F85EB51B0
:1026E0002DE9F04105460F4616469846069C1EE029
:1026F000B4F1FF3F1BD02CB1FEF754FDC8EB000036
:10270000844214D22A68D36823F4D073D3602A6831
:10271000536923F001035361202385F83D3085F888
:102720003E30002385F83C300320BDE8F0812B6863
:102730001B6837EA03030CBF01230023B342D7D041
:102740000020BDE8F08100BF68B310B5044690F8E2
:102750003D3013F0FF0F04D1002380F83C30FEF72A
:1027600065FC242384F83D302268D36823F40053A9
:10277000D3602046FFF72CFF2268136923F49043AF
:1027800013612268536923F02A0353612268D368D6
:1027900043F40053D36000202064202384F83D30AC
:1027A00084F83E3010BD0120704700BF2DE9F04194
:1027B00082B01E4690F83D30DBB2202B55D1044646
:1027C0000D469046002952D0002A52D090F83C3055
:1027D000012B50D0012380F83C30002303642123D7
:1027E00080F83D30FEF7DEFC0746A4F82480A4F80C
:1027F0002680A368B3F5805F04D123692BB14FF025
:10280000000804E04FF0000801E0A846002500237E
:1028100084F83C3018E000963B4600228021204698
:10282000FFF75EFF48BB35B9226838F8023BC3F3B7
:102830000803536003E0236815F8012B5A60E38C0A
:102840009BB2013B9BB2E384E38C9BB2002BE2D1B1
:1028500000963B46002240212046FFF741FF0346F9
:1028600068B9202284F83D200AE0022308E0012311
:1028700006E0012304E0022302E0032300E0032337
:10288000184602B0BDE8F08110B5044601684B69F6
:1028900003F0800290F83D30DBB2212B0BD152B116
:1028A0004B6923F080034B61406B08B1FEF716FEC5
:1028B0002046FFF739FE21684B6903F0400294F887
:1028C0003E30DBB2222B0BD152B14B6923F04003D7
:1028D0004B61A06B08B1FEF701FE2046FFF72EFE0C
:1028E000002010BD704700BF08B50168CB6823F019
:1028F0004003CB60202380F83D30FFF7F3FF00203A
:1029000008BD00BF704700BF704700BF704700BFE1
:1029100010B5846B23685B6903F0800294F83D3046
:10292000DBB2212B05D122B10023E3842046FFF73F
:10293000FBFD23685B6903F0400294F83E30DBB294
:10294000222B05D122B10023E3852046FFF7F6FDB7
:10295000236C43F0100323642046FFF7D7FF10BD1C
:1029600008B5806B0023C385C384FFF7CFFF08BD84
:10297000704700BF90F83E30DBB2222B4DD1836808
:10298000B3F5805F0BD102694AB9826A03685B685C
:10299000C3F308031380836A0233836212E0826AFE
:1029A000B3F5805F02D02BB903691BB903685B687C
:1029B000137004E003685B6803F07F031370836A9D
:1029C00001338362C38D9BB2013B9BB2C38533BB92
:1029D00010B504460268D36823F02003D360026870
:1029E000D36823F48073D3600268536923F0010332
:1029F0005361202380F83E30036B012B08D102681D
:102A0000D36823F01003D360818DFFF7B1FF01E09D
:102A1000FFF778FF0020206310BD022070470020E0
:102A2000704700BF30B583B0044602681368D068B1
:102A3000516913F00F0509D113F0200F06D010F0E3
:102A4000200F03D02046FFF795FFE3E0002D68D06C
:102A500011F0010102D110F4907F62D013F0010F48
:102A600006D010F4807F03D0226C42F00102226471
:102A700013F0040F04D019B1226C42F00202226458
:102A800013F0020F04D019B1226C42F00402226448
:102A900013F0080F07D010F0200F00D119B1226CED
:102AA00042F008022264226C002A00F0B38013F086
:102AB000200F05D010F0200F02D02046FFF75AFF5C
:102AC00023685B6903F04003226C12F0080F00D109
:102AD0000BB32046FFF732FD23685A6912F0400F0E
:102AE00015D05A6922F040025A61A36B5BB14A4A81
:102AF0001A65A06BFEF73CFD002800F08B80A06BF0
:102B0000036D984786E02046FFF700FF82E02046ED
:102B1000FFF7FCFE7EE02046FFF7F8FE002323646B
:102B200078E0216B012962D113F0100F5FD010F013
:102B3000100F5CD000230193136801935368019335
:102B4000019B536913F0400F31D0A16B0B685B6898
:102B50009BB2002B5ED0A08D83425BD2E385CB6914
:102B6000B3F5807F1AD0D36823F48073D3602268D2
:102B7000536923F0010353612268536923F0400332
:102B80005361202384F83E30002323632268D368F6
:102B900023F01003D360A06BFEF7A0FCA38DE18DA2
:102BA00089B2591A89B22046FFF7E2FE32E0A38DBE
:102BB000E18D89B2591A89B2E38D9BB253B349B3FF
:102BC000D36823F49073D3602268536923F0010320
:102BD0005361202384F83E30002323632268D368A6
:102BE00023F01003D3602046FFF7C2FE12E013F07B
:102BF000800F06D010F0800F03D02046FFF7B6FC00
:102C000008E013F0400F05D010F0400F02D020462E
:102C1000FFF76AFE03B030BD6129000808B5806B7C
:102C2000036B012B04D1818D4908FFF7A1FE08BD7C
:102C3000FFF76AFE08BD00BF08B5836B0268126823
:102C400012F4807F1BD10022DA851968CA6822F449
:102C50008072CA6019684A6922F001024A611968E3
:102C60004A6922F040024A61202283F83E201A6B12
:102C7000012A04D11968CA6822F01002CA601A6BCE
:102C8000012A04D1998D1846FFF772FE08BD184637
:102C9000FFF738FE08BD00BF30B583B004461346C9
:102CA0008162A28500250564222280F83E20826B85
:102CB0001448D063A26B14481064A26B1348D0640C
:102CC000A26B156520680A46011DA06BFEF7D0FBBC
:102CD000019523681A6801925A680192019A84F852
:102CE0003C50DA6842F48072DA602268536943F03B
:102CF000010353612268536943F04003536128463E
:102D000003B030BD392C00081D2C00081129000823
:102D100008B590F83E30DBB2202B0DD171B17AB1FD
:102D200090F83C30012B0DD0012380F83C3000237B
:102D30000363FFF7B1FF08BD022008BD012008BDF5
:102D4000012008BD022008BDDFF834D00D480E492F
:102D50000E4A002302E0D458C4500433C4188C42F5
:102D6000F9D30B4A0B4C002301E013600432A2425A
:102D7000FBD3FEF73FF900F017F8FDF7C7FF7047E8
:102D800000000220000000204C0C00208C460008AF
:102D90004C0C0020081A0020FEE70000014B1868C8
:102DA000704700BF3808002070B50F4E0F4D761BDE
:102DB000B61018BF002405D0013455F8043B9847DD
:102DC000A642F9D10A4E0B4D761B01F033FCB6102A
:102DD00018BF002406D0013455F8043B9847A6429A
:102DE000F9D170BD70BD00BF804600088046000864
:102DF000884600088046000870B4840746D0541EF8
:102E0000002A41D0CDB2034602E0621EE4B314466C
:102E100003F8015B9A07F8D1032C2ED9CDB245EA0D
:102E200005250F2C45EA054519D903F11002264660
:102E3000103E0F2E42F8105C42F80C5C42F8085C21
:102E400042F8045C02F11002F2D8A4F1100222F060
:102E50000F0204F00F041032032C13440DD91E4648
:102E60002246043A032A46F8045BFAD8221F22F0CD
:102E700003020432134404F003042CB1C9B21C440D
:102E800003F8011BA342FBD170BC704714460346F4
:102E9000C2E700BFF0B5054689B008460C46FDF70D
:102EA000EFFBAB6B144F04940126441C04A90222CF
:102EB00003940590AC680697079601910292B3B10E
:102EC000B4F90C309A0406D4626E43F4005322F431
:102ED0000052A38162662146284601AA00F016FB33
:102EE000002814BF4FF0FF300A2009B0F0BD28467B
:102EF00000F0B8F9E4E700BF74460008024B014651
:102F00001868FFF7C7BF00BF3808002038B5304B3E
:102F10001B6805460C4613B19A6B002A38D0B4F9E9
:102F20000C2093B218070CD52069A8B113F0010248
:102F30001ED0636900225B42A361A260F0B1002051
:102F400038BDD9063CD5580726D4206942F008037D
:102F5000A3819BB20028E9D103F42072B2F5007F6F
:102F6000E4D02846214600F0ADFCA3892069DDE7C6
:102F7000990758BF6269A2600028E0D1B4F90C300B
:102F80001A06DDD543F04003A3814FF0FF3038BD72
:102F9000184600F067F9C2E7216B51B104F1400314
:102FA000994204D0284600F0C9F9B4F90C20002356
:102FB000236300232069636022F024022060C5E7B8
:102FC00042F0400209232B604FF0FF30A28138BD50
:102FD00038080020024B13B1024800F005B87047D2
:102FE0000000000079320008002301461A46184606
:102FF00001F028BAB1F90C309AB22DE9F0410D4632
:10300000110780463CD46A6843F40063002AAB8110
:1030100073DDAC6A002C4BD09BB203F480520021CC
:1030200092B2D8F80060C8F80010002A69D02A6D62
:103030005F0705D569682B6B521A0BB1EB6BD21A7F
:103040000023E9694046A047441C3CD0B5F90C3048
:103050002A692A6023F400630022AB81DB046A60E2
:1030600049D4296BC8F8006011B305F140039942B7
:1030700002D0404600F062F900202863BDE8F081EC
:103080002E69AEB12C682E6090070CBF6B690023CF
:10309000A41BAB600AE0234632466F6AE9694046EA
:1030A000B8470028A4EB0004064404DD002CF2DC41
:1030B0000020BDE8F081AB8943F04003AB814FF0C5
:1030C000FF30BDE8F081D8F800201D2AF3D81A4B54
:1030D000D34003F0010383F00104002BEBD0B5F9DA
:1030E0000C302969296023F40063D9046C60AB813A
:1030F000B7D5002AB5D12865B3E7EA6B002A88DC8A
:10310000D6E70123E9694046A047431C024602D0A6
:10311000AB89AC6A8CE7D8F80030002BF8D01D2BB7
:1031200001D0162B02D1C8F80060C1E7AB8943F08B
:103130004003AB81BDE8F0810100402010B504469A
:1031400082B008B1836B53B1B1F90C0008B902B079
:1031500010BD204602B0BDE81040FFF74BBF019103
:1031600000F080F80199EFE7014900F051BB00BF82
:103170000D4500082DE9F04F354B4568C363002429
:10318000074600F53B7204230321C0F8E412C0F89F
:10319000E822C0F8E04283B02C606C60AC606C66E2
:1031A000EC812C616C61AC61AB81214605F15C0066
:1031B0000822FFF721FEBE68DFF898B0DFF898A07C
:1031C000DFF89890DFF89880C5F820B00123092235
:1031D000C5F824A0C5F82890C5F82C80ED612146DB
:1031E000F381B28106F15C0034607460B46074668F
:1031F00034617461B46108220193FFF7FDFDFD683D
:10320000F66112200222C6F820B0C6F824A0C6F843
:103210002890C6F82C802146A881EA812C606C6039
:10322000AC606C662C616C61AC6105F15C000822DD
:10323000FFF7E2FD019BED61C5F820B0C5F824A0C1
:10324000C5F82890C5F82C80BB6303B0BDE8F08FAB
:103250006931000891430008B5430008F1430008B4
:1032600011440008836B03B17047FFF783BF00BFB1
:10327000704700BF704700BF38B5074D074C2C1B87
:10328000A41005D0013C55F8043D9847002CF9D115
:10329000BDE8384001F0D4B98C46000888460008E3
:1032A000F8B5234F0C46064600F06CFEBB685D681F
:1032B00025F00305291B01F6EF7121F47F6121F050
:1032C0000F01A1F58054B4F5805F07DB0021304683
:1032D00001F04CF8BB682B44984204D0304600F013
:1032E00053FE0020F8BD6142304601F03FF8013046
:1032F0000DD0104BBA6819682D1B45F001053046FA
:10330000091B5560196000F03FFE0120F8BD002147
:10331000304601F02BF8BA68831A0F2BDEDD064C1D
:103320000449246843F00103001B53600860D5E79B
:103330003C080020DC190020480C0020002945D062
:103340002DE9F0410D46804600F01CFE55F8047C46
:103350006A4927F00103A5F10804E2188E68506855
:10336000B24220F0030062D0FE0750600BD455F843
:10337000087CE41B01F1080EA56875453B446FD03D
:10338000E768EF60BD6015186D68ED0742D543F042
:1033900001026260E350B3F5007F18D2DB085A1CCB
:1033A0004D6851F83270A76001209B1000FA03F3BA
:1033B00001EBC2001D430838E0604D6041F8324027
:1033C000FC604046BDE8F04100F0DEBD70475A0A9F
:1033D000042A53D89A0902F139077F0002F138050F
:1033E00001EB870051F827204449083890424DD01E
:1033F000516821F003018B4202D292689042F7D1CA
:10340000D068E060A2608460D4604046BDE8F041CE
:1034100000F0BABD95683A4FBD4203443FD0D06832
:10342000E86043F0010285606260E350B3E7FF07A4
:10343000034407D455F8082CA41A1344A068E26882
:10344000C26090602F4A126843F0010093426060AE
:103450008C60B6D32C4B40461968FFF721FFB0E7CC
:1034600011184968C90744D49168D268CA600344F6
:1034700043F0010091606060E350A2E7142A17D87E
:1034800002F15C077F0002F15B05A9E7AA104B6817
:10349000012505FA02F213434B600246B1E743F0FF
:1034A00001024C610C61E560A5606260E35088E751
:1034B000542A06D81A0B02F16F077F0002F16E053D
:1034C0008EE7B2F5AA7F06D8DA0B02F178077F0003
:1034D00002F1770584E740F25450824206D89A0CF4
:1034E00002F17D077F0002F17C0579E7FE277E254A
:1034F00076E743F001026260E35062E73C08002097
:1035000044080020440C0020D81900209368002BA8
:1035100076D02DE9F04F8B8985B00C4619070190C4
:10352000164629D522693AB303F002081FFA88F03B
:10353000356800282FD04FF00009B44FC846B24676
:10354000B84543464A4628BF3B460198B8F1000FAC
:1035500050D0E169666AB047002871DDDAF80830BA
:103560001B1A8144C0EB0808CAF80830002BE7D1C9
:10357000002005B0BDE8F08F21460198FFF7C6FC9A
:10358000002840F03A81A389356803F002081FFA49
:1035900088F00028CFD113F001095BD14F46029685
:1035A0001FB39A05D4F808802CD54745C246C0F011
:1035B000A48013F4906F40F0B180206852464946D1
:1035C00000F07CFCA0682368C8EB00005344A060B6
:1035D00023603846029A93681B1A81443F1A93600D
:1035E000002BC5D0A389002FDBD1D5F800906F68E0
:1035F0000835D5E7D5F80090D5F8048008359FE761
:103600000020704720682369984203D861698F427F
:1036100080F0B780B84528BFB8464246494600F01A
:103620004DFCA3682268C8EB03034244A3602260F8
:10363000002B49D121460198FFF780FD002843D097
:10364000B4F90C3043F040034FF0FF30A38105B0D4
:10365000BDE8F08F8046029082468146B9F1000FA6
:103660002AD0029B002B4CD0206823696269C84590
:10367000C34628BFCB4698425F4604D9A36813448B
:103680009B4500F39080934520DB1346676AE16910
:1036900001985246B847071ED2DDB8EB070823D081
:1036A000B368DB1BBA44C7EB0909B360002B3FF4D6
:1036B0005FAFB9F1000FD4D10023D5F800A0D5F841
:1036C000049002930835C9E7404683E75A465146BD
:1036D00000F0F4FBA2682368CBEB02025B44B8EB7A
:1036E0000708A2602360DBD121460198FFF726FD81
:1036F0000028A5D1CDF80880D2E72068B846BA46A0
:103700005CE74A460A215046FDF72AF800286FD0A8
:1037100001300123CAEB00080293A5E76269206823
:10372000216902EB4208C1EB000A08EBD8780AF1E4
:1037300001004FEA680838444045424684BF80464D
:1037400042465B0542D51146019800F0FFF88346DA
:10375000002855D052462169FCF7ECFEA38923F4DA
:10376000906343F08003A381CAEB08030BEB0A00CC
:10377000C4F81480C4F810B02060A360B846BA46FC
:103780001CE76FF00043BB4228BF3B464A4693FB11
:10379000F1F30198666A01FB03F3E169B047002881
:1037A0003FF718AF4CE71A465146039300F086FBEB
:1037B0002268039B01981A4422602146FFF7BEFC51
:1037C000039B00287FF43CAF1F4666E7019800F09A
:1037D000DDFB83460028C7D1019D21692846FFF7FC
:1037E000ADFDB4F90C300C2223F080032A6029E7E8
:1037F000012309F10108029336E74FF0FF30B8E6E4
:10380000019A0C231360B4F90C301BE700FCFF7F16
:103810002DE9F84310F538771FD0884606464FF05B
:1038200000097D68BC68013D11D4A389012B05F115
:10383000FF3508D9B4F90E3001332146304602D0A5
:10384000C04749EA00096B1C04F16804EDD13F68E8
:10385000002FE6D14846BDE8F883B9464846BDE8A2
:10386000F88300BF70B50D46B1F90E10002990B075
:1038700014461E4614DB01AA00F08AFE00280FDB66
:10388000029A02F47042A2F50052B2FA82F2520990
:103890004FF480634FF400603260236010B070BD5D
:1038A000A88900F0800082B2002030601AB1402365
:1038B000236010B070BD4FF480631046236010B0D9
:1038C00070BD00BF8A8992070B4606D501F14302FD
:1038D00001211A601A6159617047F0B583B001ABDC
:1038E0006A460C460546FFF7BDFF00990646284686
:1038F00000F02CF8B4F90C30D0B1019A124F0099B5
:10390000EF6343F08003A3812060206161611AB9F5
:103910003343A38103B0F0BD2846B4F90E1000F084
:103920004BFEB4F90C300028F2D043F00103EFE76E
:103930009A05EFD404F1430243F002030121A3816D
:10394000226022616161E5E7693100082DE9F04FED
:1039500001F10B05162D83B0064640F29F8035F02D
:10396000070500F1BF80A94200F2BC8000F00AFB0D
:10397000B5F5FC7FC0F09C826B0A00F0BA80042B86
:1039800000F28381A80900F1390E4FEA4E03383066
:10399000C44F07EB8303A3F108015C68A14207D180
:1039A000ACE0002A80F2AC80E468A14200F0A6807E
:1039B000636823F003035A1B0F2AF2DDB9493C69FF
:1039C00001F1080E744500F0B381636823F003032E
:1039D0005A1B0F2A00F39981002AC1F814E0C1F89C
:1039E00010E080F29E80B3F5007F80F06781DB08F5
:1039F00003F1010C01229B1002FA03F34A6851F80B
:103A00003C80C4F8088001EBCC091A43A9F10803F3
:103A1000E3604A6041F83C40C8F80C408310012440
:103A20009C40944200F28A80144206D120F00300A8
:103A30006400144200F10400FAD007EBC009CC4640
:103A40008046DCF80C108C4507D173E1002A80F227
:103A50008181C9688C4500F06D814B6823F00303B8
:103A60005A1B0F2AF2DD0C46D1F80CC054F8088F0F
:103A70004B1945F001054D6042F00101C8F80CC03A
:103A80003046CCF808807B613B61C3F80CE0C3F89A
:103A900008E059609A5000F077FA1FE0102921D809
:103AA00000F070FA1025062302207E4F07EB8303F7
:103AB000A3F108025C68944200F045816368E16804
:103AC000A56823F00303234430465A68E96042F0B6
:103AD00001028D605A6000F057FA0834204603B0A6
:103AE000BDE8F08F00240C232046336003B0BDE80E
:103AF000F08F80234FF0400E3F2049E770465DE78E
:103B00002344E1685A68A56842F00102E960304642
:103B10008D605A6000F038FA0834204603B0BDE8E2
:103B2000F08F234430465A6842F001025A6000F098
:103B30002BFA0834204603B0BDE8F08FBC686368F8
:103B400023F00308A84504D3C5EB08030F2B00F3AB
:103B50008C80554BDFF860911A68D9F8003001333A
:103B60002A4404EB080A00F0608102F580520F320B
:103B700022F47F6222F00F0211463046019200F0DB
:103B8000F5FBB0F1FF3F8346019A00F05881824572
:103B900000F2FC80454B1968DA451144196000F0C9
:103BA0005381D9F80000DFF810E101301BBFCAEBE8
:103BB0000B0A5144CEF800B019601BF0070100F069
:103BC0001781C1F10800C1F58051834408315A447E
:103BD000C2F30B02C2EB010949463046019300F0E3
:103BE000C5FB431C019B00F03F81CBEB00024A4424
:103BF00042F001021968C7F808B04944BC42CBF84A
:103C000004201960DFF8A49016D0B8F10F0F40F22D
:103C1000FD806268A8F10C0323F00703E01802F0AE
:103C200001024FF0050E1A430F2B6260C0F804E04A
:103C3000C0F808E000F21C811D4BBC681A68914274
:103C400088BF19601B4B1A689142626888BF19606F
:103C500022F003029542A2EB050301D80F2B04DCEE
:103C6000304600F091F9002438E7621943F001036F
:103C700045F0010565603046BA60536000F084F994
:103C80000834204603B0BDE8F08F142B71D9542BB3
:103C900000F2A480280B00F16F0E4FEA4E036E3045
:103CA00076E600BF3C080020D8190020DC1900206F
:103CB000D4190020D0190020480C00205A0A042AE8
:103CC0005ED9142A00F2B38002F15C0149005B3234
:103CD00007EB810C57F82110DFF8DC81ACF1080C00
:103CE0008C4500F088804A6822F00302934202D299
:103CF00089688C45F7D1D1F80CC07A68C4F80CC03B
:103D0000A160CCF80840CC6088E6631942F0010756
:103D100045F00105656030464B610B61C3F80CE06E
:103D2000C3F808E05F609A50083400F02DF9D5E63A
:103D30004A6873E608F1010818F0030F0CF1080C4B
:103D40007FF47FAE30E0DC68A34208BF02303FF46E
:103D500035AEB3E60B440C465A68C96854F8085FA0
:103D600042F001025A603046E9608D6000F00CF9C3
:103D7000B4E603F15C0E03F15B004FEA4E0307E685
:103D80009A0902F1390149003832A1E7BC424A4B95
:103D90003FF400AF9C68626822F003025AE759F8CA
:103DA0000839994540F0828010F0030F00F1FF3090
:103DB000F5D17B6823EA04037B6064009C423FF6F4
:103DC000BDAE002C3FF4BAAE1C4240467FF435AE87
:103DD00064001C4200F10400FAD02EE6B3F5AA7F7D
:103DE00018D8E80B00F1780E4FEA4E037730CFE594
:103DF0004FF48051EBE60121D8F80430921001FA1B
:103E000002F21A43C8F80420614677E70123CBF891
:103E1000043025E740F25452934220D8A80C00F118
:103E20007D0E4FEA4E037C30B2E51032A4E6542AF0
:103E300026D81A0B02F16F0149006E3248E7BC68C0
:103E4000626822F0030205E7CAF30B0000287FF442
:103E5000A8AE4244BB6842F001025A60ECE6FE2381
:103E60004FF07F0E7E2093E501224FF00009C1E65E
:103E700004F108013046FFF761FAD9F80010DBE6DB
:103E8000B2F5AA7F05D8DA0B02F178014900773242
:103E90001EE740F254518A4205D89A0C02F17D0186
:103EA00049007C3214E7FE217E2211E77B6884E71B
:103EB000E808431C5B00F8E53C0800208842F0B5A8
:103EC0000DD98B1898420AD28118002A51D09A1A1B
:103ED00013F8014D01F8014D9342F9D1F0BD0F2ABD
:103EE00048D941EA00039B0746D100F1100401F1D3
:103EF0001003154653F8106C44F8106C53F80C6C12
:103F000044F80C6C53F8086C44F8086C103D53F8F6
:103F1000046C44F8046C0F2D03F1100304F1100439
:103F2000E8D8A2F1100323F00F0302F00F0E1033B4
:103F3000BEF1030F1944034421D91E1F0D467446D8
:103F4000043C55F8047B46F8047F032CF8D8AEF106
:103F5000040424F0030404342344214402F0030243
:103F600062B1013B0A4411F8014B03F8014F8A4248
:103F7000F9D1F0BD0346F3E70346F2E7F0BD724620
:103F8000EEE700BF704700BF704700BF2DE9F04F5C
:103F9000174683B0002900F0C1800E46814607F124
:103FA0000B05FFF7EFFF56F804EC162D2EF0030477
:103FB000A6F1080840D810221546AF4241D89442D5
:103FC00075DAC94B996808EB04008842416800F033
:103FD000D98021F0010303445B68DB077DD51EF027
:103FE000010F35D039464846FFF7B0FC0746E0B12F
:103FF00056F8043C23F001034344A0F108029A421E
:1040000000F04481221F242A00F23181132A00F299
:1040100004810346324611681960516859609268FC
:104020009A6031464846FFF789F94846FFF7ACFFEA
:10403000384603B0BDE8F08F25F00705002D2A466D
:10404000BBDA0C230020C9F8003003B0BDE8F08FC4
:1040500056F8083CC3EB080ADAF8043023F0030CE6
:1040600004EB0C039342BDDB5746DAF80C1057F80B
:10407000080F221F242AC160886000F21781132ACA
:1040800040F212813168CAF808107168CAF80C1041
:104090001B2A00F22B8108360AF1100231681160E8
:1040A00071685160B16891603E461C46D046631B02
:1040B0000F2B1DD8D8F8043003F0010323434444E8
:1040C000C8F80430636843F0010363604846FFF7B3
:1040D0005BFF304603B0BDE8F08F21F003012144BF
:1040E000914221DBC36882680C46D3609A60DEE7A8
:1040F000D8F8042008EB050102F00102154343F053
:1041000001020B44C8F804504A605A6842F00102A8
:1041100008315A604846FFF711F9D7E7114603B056
:10412000BDE8F04FFFF712BC1EF0010F7FF45AAF4D
:1041300056F8083CC3EB080ADAF8043023F0030C05
:1041400001EB0C0E96458BDBC36882685746D36043
:104150009A6057F8081FDAF80C30CB60221F242A27
:10416000996000F29980132A62D93368CAF808303E
:104170007368CAF80C301B2A00F2A08008360AF1D6
:10418000100356E021F0030BA34405F11000834512
:1041900059DA1EF0010F7FF425AF56F8081CC1EB69
:1041A000080ADAF8041021F0030CE34458453FF7FD
:1041B00057AF5746DAF80C1057F8080F221F242A79
:1041C000C160886000F2B480132A40F2A580316893
:1041D000CAF808107168CAF80C101B2A00F2AF80E8
:1041E00008360AF110023168116071685160B168D7
:1041F00091600AEB0501C5EB0B0242F001029960E8
:104200004A60DAF8043003F001031D434846CAF857
:104210000450FFF7B9FE38465CE733680360736803
:1042200043601B2A27D800F1080306F10802F2E6D2
:104230003B4632681A6072685A60B2689A603E46BD
:104240007446D04633E708EB0501C5EB0B0B4BF08A
:10425000010299604A6056F8043C03F001031D43D3
:10426000484646F8045CFFF78FFE304632E7314699
:10427000FFF724FED5E6B3688360F368C360242AA1
:1042800028D000F1100306F11002C4E650F8043CF7
:1042900023F003031C440AE7314638467446D046EF
:1042A000FFF70CFE3E4602E73A46F7E6314638464F
:1042B0001C46D046FFF702FE3E46F8E6B368CAF851
:1042C0001030F368CAF81430242A1BD010360AF1D3
:1042D0001803AEE7336903617369436106F118029D
:1042E00000F1180397E600BF3C080020B168CAF847
:1042F0001010F168CAF81410242A0FD010360AF1F1
:104300001802CBE63369CAF818307369CAF81C3052
:1043100018360AF120038CE73A4664E73269CAF896
:1043200018207269CAF81C2018360AF12002B5E676
:10433000314638460193FFF7C1FD019B59E7B1684B
:10434000CAF81010F168CAF81410242A03D01036E5
:104350000AF1180247E73269CAF818207269CAF8E8
:104360001C2018360AF120023DE700BF38B5074C83
:104370000023054608462360FCF712FE431C00D0CC
:1043800038BD2368002BFBD02B6038BD041A0020F9
:1043900010B50C46B1F90E1000F036F9002803DB19
:1043A000236D0344236510BDA38923F48053A381A7
:1043B00010BD00BF2DE9F0411646B1F90C201F4693
:1043C000D3050C46054607D500220223B1F90E108D
:1043D00000F004F9B4F90C20B4F90E1022F4805264
:1043E000A2813B4632462846BDE8F04100F014B8B1
:1043F00010B50C46B1F90E1000F0F0F8A389421C7C
:104400000EBF23F4805343F480532065A38110BD75
:10441000B1F90E1000F068B870B50D46084C1146A1
:1044200006461A46284600232360FCF7ABFD431CD2
:1044300000D070BD2368002BFBD0336070BD00BF7F
:10444000041A00202DE9F047254C2568D5F848418D
:104450000646884692469946C4B360681F2817DC12
:10446000431C76B104EB80050122C5F888A0D4F87E
:10447000881182401143022EC4F88811C5F80891B2
:104480001ED00230636044F820800020BDE8F08731
:10449000144B03B34FF4C870AFF300800446D0B19F
:1044A000D5F84831002780E88800C5F848413846EB
:1044B0000123C4F88871C4F88C71002EE1D0D1E7D3
:1044C000D4F88C110A43C4F88C21DAE705F5A674F8
:1044D000C5F84841C1E74FF0FF30BDE8F08700BFA5
:1044E000704600080000000038B5074C0023054660
:1044F00008462360FCF770FD431C00D038BD2368DC
:10450000002BFBD02B6038BD041A002000293DD0C1
:1045100070B505460C4608B1836B7BB3B4F90C301B
:104520000BB9002070BD21462846FEF763FDE36A03
:10453000064633B1E169284698470028B8BF4FF0D6
:10454000FF36A3891B061CD4216B41B104F1400343
:10455000994202D02846FEF7F1FE00232363616CE6
:1045600021B12846FEF7EAFE00236364FEF780FED1
:104570000023A381FEF77EFE304670BDFEF772FE7B
:10458000CCE721692846FEF7D9FEDDE70020704719
:1045900038B50B46074C05461146184600232360E4
:1045A000FCF71EFD431C00D038BD2368002BFBD058
:1045B0002B6038BD041A002038B5074C002305468F
:1045C00008462360FCF712FD431C00D038BD236869
:1045D000002BFBD02B6038BD041A002070B50D46AF
:1045E000084C114606461A46284600232360FCF76D
:1045F000FFFC431C00D070BD2368002BFBD0336050
:1046000070BD00BF041A002070B50D46084C11465D
:1046100006461A46284600232360FCF7A3FC431CE9
:1046200000D070BD2368002BFBD0336070BD00BF8D
:10463000041A0020F8B500BFF8BC08BC9E467047BD
:0C464000F8B500BFF8BC08BC9E467047EF
:10464C006F6B00000000000000000000010203047A
:10465C0006070809000000000102030400061016FA
:0C466C0000061016100400200A000000D8
:08467800D4BBFF7F010000002C
:08468000D52F0008E501000838
:04468800C101000864
:10468C000003050911FF118905C300E000F000F8D3
:10469C00000000000000004428FF11AA44000000A4
:1046AC0000000000000000000000000000000000FE
:1046BC0000000000000000000000000000000000EE
:1046CC0000000000000000000000000000000000DE
:1046DC0000000000000000000000830138448292BA
:1046EC0092740183000000000000007C44FF017DF7
:1046FC007D7D017D7D7D7D017D7D7D7D7D01FF004D
:10470C000000000000010001000100010001000197
:10471C00000000000000000000010100000000008B
:10472C00000000000000000000000000000000007D
:10473C00000000000000000000000000000000006D
:10474C00000000000000000000000000000000005D
:10475C00000000000000000000000101000000004B
:10476C000000010100000000000000000001010138
:10477C00010101010101010101010101010101001E
:10478C00000000000000000000000000000000001D
:10479C000000000000000000000000003F3F030389
:1047AC00F31311111111111101F1116181010101A9
:1047BC00816111F1010101014141F101010101018D
:1047CC00C1211111111121C1010101014141F1015D
:1047DC000101010101010101011111111111D33369
:1047EC0003033F3F00000000000000000000000039
:1047FC0000000000000000000000000000000000AD
:10480C00000000000000000000000000000000009C
:10481C00000000000000000000000000E0E00000CC
:10482C007F01010101010100007F00000106180653
:10483C000100007F0000000040407F40400000006D
:10484C001F2040404040201F0000000040407F409F
:10485C004000000000600000000040300C0300002D
:10486C000000E0E00000000000000000000000007C
:10487C00000000000000000000000000000000002C
:10488C00000000000000000000000000000000001C
:10489C0000000000000000000000000007070606F2
:1048AC0006060404048444444484040484444444B8
:1048BC008404040484C4040404048444444484042C
:1048CC00040404048444444484040404040484441C
:1048DC0044448404048444444484040404040606C8
:1048EC0006060707000000000000000000000000A2
:1048FC0000000000000000000000000000000000AC
:10490C00000000000000000000000000000000009B
:10491C00000000000000000000000000000000008B
:10492C000000000000101814121100000F101010DD
:10493C000F000000101F10000000081012120D00D4
:10494C00001800000D1212120D00001800001018B3
:10495C0014121100001018141211000000000000B5
:10496C00000000000000000000000000000000003B
:10497C00000000000000000000000000000000002B
:10498C00000000000000000000000000000000001B
:10499C00000000000000000000000000000000000B
:1049AC0000000000000000000000000000000000FB
:1049BC0000000000000000000000000080808080EB
:1049CC0080808080000000000000000000000000DB
:1049DC0000000000000000000000000000000000CB
:1049EC0000000000000000000000000000000000BB
:1049FC0000000000000000000000000000000000AB
:104A0C00007F030C300C037F000038545458000016
:104A1C007C04047800003C40407C00000000000056
:104A2C00000000000000000000000000000000007A
:104A3C00000000000000000000000000FFAAAAAA6D
:104A4C00280800FF0000000000000000000000002B
:104A5C00000000000000000000000000000000004A
:104A6C000000000000000000007F030C300C037FEE
:104A7C000000264949493200007F020408107F00DB
:104A8C000024F400100000000100000000000000F1
:104A9C0000000000FC06002064070020CC0700206A
:104AAC0000000000000000000000000000000000FA
:104ABC0000000000000000000000000000000000EA
:104ACC0000000000000000000000000000000000DA
:104ADC0000000000000000000000000000000000CA
:104AEC0000000000000000000000000000000000BA
:104AFC0000000000000000000000000000000000AA
:104B0C000000000000000000000000000000000099
:104B1C000000000000000000000000000000000089
:104B2C000000000000000000000000000000000079
:104B3C000000000000000000010000000000000068
:104B4C000E33CDAB34126DE6ECDE05000B0000002D
:104B5C000000000000000000000000000000000049
:104B6C000000000000000000000000000000000039
:104B7C000000000000000000000000000000000029
:104B8C000000000000000000000000000000000019
:104EBC0000000000000000001004002000000000B2
:104ECC00000000003C0800203C08002044080020A2
:104EDC00440800204C0800204C08002054080020F6
:104EEC00540800205C0800205C08002064080020A6
:104EFC00640800206C0800206C0800207408002056
:104F0C00740800207C0800207C0800208408002005
:104F1C00840800208C0800208C08002094080020B5
:104F2C00940800209C0800209C080020A408002065
:104F3C00A4080020AC080020AC080020B408002015
:104F4C00B4080020BC080020BC080020C4080020C5
:104F5C00C4080020CC080020CC080020D408002075
:104F6C00D4080020DC080020DC080020E408002025
:104F7C00E4080020EC080020EC080020F4080020D5
:104F8C00F4080020FC080020FC0800200409002084
:104F9C00040900200C0900200C0900201409002031
:104FAC00140900201C0900201C09002024090020E1
:104FBC00240900202C0900202C0900203409002091
:104FCC00340900203C0900203C0900204409002041
:104FDC00440900204C0900204C09002054090020F1
:104FEC00540900205C0900205C09002064090020A1
:104FFC00640900206C0900206C0900207409002051
:10500C00740900207C0900207C0900208409002000
:10501C00840900208C0900208C09002094090020B0
:10502C00940900209C0900209C090020A409002060
:10503C00A4090020AC090020AC090020B409002010
:10504C00B4090020BC090020BC090020C4090020C0
:10505C00C4090020CC090020CC090020D409002070
:10506C00D4090020DC090020DC090020E409002020
:10507C00E4090020EC090020EC090020F4090020D0
:10508C00F4090020FC090020FC090020040A00207F
:10509C00040A00200C0A00200C0A0020140A00202C
:1050AC00140A00201C0A00201C0A0020240A0020DC
:1050BC00240A00202C0A00202C0A0020340A00208C
:1050CC00340A00203C0A00203C0A0020440A00203C
:1050DC00440A00204C0A00204C0A0020540A0020EC
:1050EC00540A00205C0A00205C0A0020640A00209C
:1050FC00640A00206C0A00206C0A0020740A00204C
:10510C00740A00207C0A00207C0A0020840A0020FB
:10511C00840A00208C0A00208C0A0020940A0020AB
:10512C00940A00209C0A00209C0A0020A40A00205B
:10513C00A40A0020AC0A0020AC0A0020B40A00200B
:10514C00B40A0020BC0A0020BC0A0020C40A0020BB
:10515C00C40A0020CC0A0020CC0A0020D40A00206B
:10516C00D40A0020DC0A0020DC0A0020E40A00201B
:10517C00E40A0020EC0A0020EC0A0020F40A0020CB
:10518C00F40A0020FC0A0020FC0A0020040B00207A
:10519C00040B00200C0B00200C0B0020140B002027
:1051AC00140B00201C0B00201C0B0020240B0020D7
:1051BC00240B00202C0B00202C0B0020340B002087
:1051CC00340B00203C0B00203C0B0020440B002037
:1051DC00440B00204C0B00204C0B0020540B0020E7
:1051EC00540B00205C0B00205C0B0020640B002097
:1051FC00640B00206C0B00206C0B0020740B002047
:10520C00740B00207C0B00207C0B0020840B0020F6
:10521C00840B00208C0B00208C0B0020940B0020A6
:10522C00940B00209C0B00209C0B0020A40B002056
:10523C00A40B0020AC0B0020AC0B0020B40B002006
:10524C00B40B0020BC0B0020BC0B0020C40B0020B6
:10525C00C40B0020CC0B0020CC0B0020D40B002066
:10526C00D40B0020DC0B0020DC0B0020E40B002016
:10527C00E40B0020EC0B0020EC0B0020F40B0020C6
:10528C00F40B0020FC0B0020FC0B0020040C002075
:10529C00040C00200C0C00200C0C0020140C002022
:1052AC00140C00201C0C00201C0C0020240C0020D2
:1052BC00240C00202C0C00202C0C0020340C002082
:0C52CC00340C002000000200FFFFFFFF78
:0400000508002D4979
:00000001FF
